:020000020000FC
:020000001FC01F
:1000400012E00FEF1EBF0DBF0FEF04B90FEF0AB99B
:1000500000E005B900E00BB910E010362CF406D032
:100060001BB905B91395F9CF10E0F7CFFF93EF93C4
:10007000DF93CF93C12FC03290F0CE3710F069F0EC
:1000800074F4C13608F0C052F0E0ECEA8894D0E095
:10009000EC1FFD1FB097049104C001E002C005E60B
:1000A00000C0CF91DF91EF91FF91089500A022361B
:1000B0004B5A6F024E786307180180217E306D79AC
:1000C000335B5F707F7B0919434161657D771F4E0C
:1000D0003D4F475E17063C570E54767E6773665B4E
:0E00E0000F3E3A2A373B694E03786208200033
:00000001FF
