:020000020000FC
:0200000021C01D
:100040008040200012E00FEF1EBF0DBF0BD003E376
:100050000093000104E40093010105E5009302010F
:100060000DD0FECF0F930FEF04B900E005B900EEFD
:100070000AB900E0009303010F9108950F931F93B5
:10008000EF93FF9310E015B90091030110E0F0E049
:10009000E0E4E00FF10F14911BB90091030110E0AF
:1000A000F1E0E0E0E00FF11F108115B900910301CC
:1000B0000395033008F000E000930301FF91EF91F6
:0600C0001F910F9108954D
:00000001FF
