:020000020000FC
:020000002FC00F
:0200240036C0E4
:100040000091C00007FFFCCF0091C60008950F93F8
:100050000091C00005FFFBCF0F910093C6000895EB
:1000600012E00FEF1EBF0DBF0F931F9310E00CE0C7
:100070001093C5000093C40000E00093C00008E99D
:100080000093C10006E00093C2001F910F91789485
:10009000FFCF0091C600013480F00B3518F40E3408
:1000A00050F407C0013648F00B3738F40E3618F418
:0E00B00000C0035F02C00D5000C0C9DF1895EC
:00000001FF
