:020000020000FC
:020000001FC01F
:1000400012E00FEF1EBF0DBF1FEF14B91AB900E089
:1000500005B90BB910E010363CF400E005B906D044
:1000600005B91BB91395F7CF10E0F5CF21C000A05B
:1000700022364B5A6F024E786307180180217E307A
:100080006D79335B5F707F7B0919434161657D77D3
:100090001F4E3D4F475E17063C570E54767E6773E2
:1000A000665B0F3E3A2A373B694E037862082000B0
:1000B0001F93EF93FF930F92103288F01E3710F0CA
:1000C00061F06CF4113608F010520024EEE6F0E016
:1000D000E10FF01DB097049104C001E002C005E6F5
:0C00E00000C00F90FF91EF911F91089558
:00000001FF
