:020000020000FC
:0200000071C0CD
:02001600C7C061
:02002000F1C02D
:10004000FF93EF93DF93CF93C12FC03290F0CE3761
:1000500010F069F074F4C13608F0C052F0E0E0E846
:100060008894D0E0EC1FFD1FB097049104C001E01C
:1000700002C005E600C0CF91DF91EF91FF91089596
:1000800000A022364B5A6F024E7863071801802178
:100090007E306D79335B5F707F7B09194341616509
:1000A0007D771F4E3D4F475E17063C570E54767EB8
:1000B0006773665B0F3E3A2A373B694E03786208E6
:1000C000200020408000466F7874726F7420556E57
:1000D00069666F726D20436861726C6965204B6957
:1000E0006C6F000012E00FEF1EBF0DBFF89403D03D
:1000F0002BD07894FFCF0F930FEF04B900E005B930
:1001000000EE0AB900E0009303010F9100E00093B4
:1001100080000BE0009381000DE30093890009E06B
:100120000093880000E0009385000093840002E0C3
:1001300000936F0000E004BD02E005BD00E006BDD5
:1001400001E000936E00089500E000930401009325
:1001500084010093850100938601009300010093C0
:10016000010100930201F0E0E6ECD1E0C4E010E010
:100170001F3734F40591003019F009931395F8CF27
:100180001093840100E00883D1E0C4E0188158DFB7
:1001900000930001198154DF009301011A8150DF9F
:1001A000009302010895009186011091850120912C
:1001B0008401003009F00AC0322F3350131711F0B8
:1001C00013950CC001E00093860108C0103011F0B7
:1001D0001A9504C000E00093860100C010938501C9
:1001E000F1E0E4E00024E10FF01D108129DF00932D
:1001F0000001118125DF00930101128121DF0093AD
:10020000020118950F930FB70F931F93EF93FF936E
:1002100010E015B90091030110E0F0E0E2ECE00F0E
:10022000F10F14911BB90091030110E0F1E0E0E03F
:10023000E00FF11F108115B9009103010395033000
:1002400008F000E000930301FF91EF911F910F91DF
:060250000FBF0F9118958D
:00000001FF
