:020000020000FC
:020000006DC0D1
:02001600BEC06A
:02002000E8C036
:100040001F93EF93FF930F92103288F01E3710F03A
:1000500061F06CF4113608F010520024ECE7F0E087
:10006000E10FF01DB097049104C001E002C005E665
:1000700000C00F90FF91EF911F91089500A02236CC
:100080004B5A6F024E786307180180217E306D79DC
:10009000335B5F707F7B0919434161657D771F4E3C
:1000A0003D4F475E17063C570E54767E6773665B7E
:1000B0000F3E3A2A373B694E037862082000466FAC
:1000C0007874726F7420556E69666F726D20436824
:1000D00061726C6965204B696C6F000012E00FEF74
:1000E0001EBF0DBFF89403D026D07894FFCF0FEF3A
:1000F00004B90AB900E005B90BB900E0009380002B
:100100000BE0009381000DE30093890009E0009368
:10011000880000E0009385000093840002E00093D3
:100120006F0000E004BD02E005BD00E006BD01E097
:1001300000936E00089500E0009300010093800199
:100140000093810100938201009383010093840155
:1001500000938501F0E0EEEBD1E0C0E010E01F3746
:1001600034F40591003019F009931395F8CF1093EA
:10017000800100E00883D1E0C0E0188161DF0093D6
:10018000830119815DDF009384011A8159DF009397
:1001900085010895009182011091810120918001D3
:1001A000003009F00AC0322F3350131711F01395A5
:1001B0000CC001E00093820108C0103011F01A95C4
:1001C00004C000E00093820100C010938101F1E0BF
:1001D000E0E00024E10FF01D108132DF0093830185
:1001E00011812EDF0093840112812ADF00938501A3
:1001F000189509B110E01BB9003251F0003471F0CC
:10020000003801F000E20BB90091830105B918959F
:1002100000E40BB90091840105B9189500E80BB909
:080220000091850105B9189554
:00000001FF
