:020000020000FC
:0200000081C0BD
:0200160013C114
:020020003DC1E0
:10004000FF93EF93DF93CF93C12FC03290F0CE3761
:1000500010F069F074F4C13608F0C052F0E0E0E846
:100060008894D0E0EC1FFD1FB097049104C001E01C
:1000700002C005E600C0CF91DF91EF91FF91089596
:1000800000A022364B5A6F024E7863071801802178
:100090007E306D79335B5F707F7B09194341616509
:1000A0007D771F4E3D4F475E17063C570E54767EB8
:1000B0006773665B0F3E3A2A373B694E03786208E6
:1000C00020000091C00007FFFCCF0091C6000895FA
:1000D0000F930091C00005FFFBCF0F910093C60066
:1000E000089520408000466F7874726F7420556EBA
:1000F00069666F726D20436861726C6965204B6937
:100100006C6F000012E00FEF1EBF0DBFF8943FD0E0
:1001100067D00F931F9310E00CE01093C50000937D
:10012000C40000E00093C00008E10093C10006E0B5
:100130000093C2001F910F9178940091C00007FFB7
:10014000FCCFF89400E000938501D1E0C4E010E01A
:100150001F3748F4B6DF003031F00A3021F0099340
:100160001395B6DFF5CF1093840100E00883D1E04A
:10017000C4E0188165DF00930001198161DF0093FD
:1001800001011A815DDF009302017894D6CF0F93AD
:100190000FEF04B900E005B900EE0AB900E00093E2
:1001A00003010F9100E0009380000BE000938100B9
:1001B0000DE30093890009E00093880000E00093BC
:1001C00085000093840002E000936F0000E004BD0E
:1001D00002E005BD00E006BD01E000936E00089559
:1001E00000E00093040100938401009385010093D3
:1001F0008601009300010093010100930201F0E0E9
:10020000E6EED1E0C4E010E01F3734F40591003091
:1002100019F009931395F8CF1093840100E0088337
:10022000D1E0C4E018810CDF00930001198108DFE0
:10023000009301011A8104DF0093020108950091E7
:1002400086011091850120918401003009F00AC0D7
:10025000322F3350131711F013950CC001E00093A7
:10026000860108C0103011F01A9504C000E0009318
:10027000860100C010938501F1E0E4E00024E10F65
:10028000F01D1081DDDE009300011181D9DE0093A5
:1002900001011281D5DE0093020118950F930FB76B
:1002A0000F931F93EF93FF9310E015B90091030193
:1002B00010E0F0E0E2EEE00FF11F14911BB90091A5
:1002C000030110E0F1E0E0E0E00FF11F108115B94B
:1002D000009103010395033008F000E0009303014F
:0E02E000FF91EF911F910F910FBF0F91189595
:00000001FF
